:100000000C9462000C948A000C948A000C948A0070
:100010000C948A000C948A000C948A000C948A0038
:100020000C948A000C948A000C948A000C948E0420
:100030000C948A000C948A000C948A000C948A0018
:100040000C94EC030C948A000C945C040C9436041D
:100050000C948A000C948A000C948A000C948A00F8
:100060000C94F2040C948A00000000002300260087
:10007000290000000008000201000003040700003E
:1000800000000000000000000000250028002B00F8
:1000900000000000240027002A00040404040404D3
:1000A0000404020202020202030303030303010227
:1000B00004081020408001020408102001020408F6
:1000C0001020200611241FBECFEFD8E0DEBFCDBF29
:1000D00011E0A0E0B1E0E4E3F4E102C005900D928C
:1000E000AE32B107D9F722E0AEE2B1E001C01D9215
:1000F000A33AB207E1F710E0C2E6D0E004C02197CE
:10010000FE010E940D0AC136D107C9F70E945906A7
:100110000C94180A0C94000090E0FC01E255FF4F8B
:100120002491FC01E656FF4F8491882399F090E0DA
:10013000880F991FFC01E057FF4FA591B491FC0176
:10014000EA57FF4F859194918FB7F894EC91E22B89
:10015000EC938FBF089580E480937C0080917A00B7
:10016000806480937A0080917A0086FDFCCF809134
:1001700078002091790090E0922B0895833081F0EF
:1001800028F4813099F08230A1F008958730A9F0E9
:100190008830B9F08430D1F4809180008F7D03C025
:1001A000809180008F7780938000089584B58F7749
:1001B00002C084B58F7D84BD08958091B0008F7793
:1001C00003C08091B0008F7D8093B00008951F938D
:1001D000CF93DF93282F30E0F901EE58FF4F849141
:1001E000F901E255FF4FD491F901E656FF4FC49152
:1001F000CC23C1F0162F81110E94BE00EC2FF0E03D
:10020000EE0FFF1FEA57FF4FA591B4919FB7F894E7
:10021000111104C08C91D095D82302C0EC91DE2B33
:10022000DC939FBFDF91CF911F9108951F93CF93D0
:10023000DF93182FEB010E948C00209711F460E0EF
:1002400004C0CF3FD10539F461E0812FDF91CF9118
:100250001F910C94E700E12FF0E0EE58FF4FE4917E
:10026000E330F9F048F4E130B9F0E230A1F584B5BB
:10027000806284BDC8BD34C0E730E9F0E83019F1D0
:10028000E43049F580918000806280938000D093B3
:100290008B00C0938A0024C084B5806884BDC7BD2C
:1002A0001FC080918000806880938000D093890077
:1002B000C093880015C08091B00080688093B00022
:1002C000C093B3000DC08091B00080628093B000F5
:1002D000C093B40005C0C038D1050CF0B5CFAFCF86
:1002E000DF91CF911F910895E091EB01F091EC0126
:1002F000309729F01092E6011092E50109940895D3
:10030000CF93DF93AC01E091E901F091EA013097DE
:10031000F1F09091E8018091E7019817C0F090E02A
:10032000292F30E02617370754F4D901AE5CBE4FB1
:10033000EA01C20FD31F28812C939F5FF1CF109247
:10034000E8016093E701CB01DF91CF910994DF9140
:10035000CF910895CF92DF92EF92FF920F931F9368
:10036000CF93DF936C017A018B01C0E0D0E0CE1512
:10037000DF0581F0D8016D918D01D601ED91FC91E1
:100380000190F081E02DC6010995892B11F021968D
:10039000EECF7E01C701DF91CF911F910F91FF90AA
:1003A000EF90DF90CF900895FC01538D448D252F61
:1003B00030E0842F90E0821B930B541710F0CF96FF
:1003C000089501970895FC01918D828D981761F031
:1003D000828DDF01A80FB11D5D968C91928D9F5F7C
:1003E0009F73928F90E008958FEF9FEF0895FC0127
:1003F000918D828D981731F0828DE80FF11D858DDA
:1004000090E008958FEF9FEF0895FC01918D228D6C
:10041000892F90E0805C9F4F821B91098F739927F1
:1004200008958AEF91E00E94050221E0892B09F4EA
:1004300020E0822F0895FC01848DDF01A80FB11DFB
:10044000A35ABF4F2C91848D90E001968F7399270A
:10045000848FA689B7892C93A089B1898C918370E8
:1004600080648C93938D848D981306C00288F389E1
:10047000E02D80818F7D80830895EF92FF920F930E
:100480001F93CF93DF93EC0181E0888F9B8D8C8D40
:10049000981305C0E889F989808185FD26C0F62E6C
:1004A0000B8D10E00F5F1F4F0F731127E02E8C8D07
:1004B000E8120CC00FB607FCFACFE889F9898081F1
:1004C00085FFF5CFCE010E941B02F1CF8B8DFE017F
:1004D000E80FF11DE35AFF4FF0829FB7F8940B8F9E
:1004E000EA89FB89808180620AC09FB7F894EE890F
:1004F000FF896083E889F9898081837080648083C3
:100500009FBF81E090E0DF91CF911F910F91FF900D
:10051000EF900895CF93DF93EC01888D8823C9F085
:10052000EA89FB89808185FD05C0A889B9898C91FC
:1005300086FD0FC00FB607FCF5CF808185FFF2CF97
:10054000A889B9898C9185FFEDCFCE010E941B024D
:10055000E7CFDF91CF91089580E090E0892B29F0DB
:100560000E94110281110C940000089585ED809382
:10057000BC008091BC0084FDFCCF1092E401089582
:1005800040917201262F30E0240F311D21323105B8
:10059000DCF42091E4012430C9F4FC0180E090E017
:1005A000861758F4309172012191DC01AE5ABE4F8A
:1005B000A30FB11D2C930196F3CF80917201680FA8
:1005C0006093720180E0089581E0089582E00895CB
:1005D0000895E091E8018091E701E81730F4F0E038
:1005E000EE5CFE4F808190E008958FEF9FEF0895BD
:1005F0009091E8018091E701981750F4E92FF0E01D
:10060000EE5CFE4F208130E09F5F9093E80102C0D6
:100610002FEF3FEFC90108958091E70190E020910D
:10062000E801821B91090895CF93DF93CB01EA0182
:10063000642F0E94C002CE01DF91CF910895CF9325
:10064000DF9300D0CDB7DEB70E94AB009C0197FFCF
:1006500002C021503F4F398360E071E00E94E509FC
:100660008A8342E050E0BE016F5F7F4F87E992E0EE
:100670000E9414030F900F90DF91CF910895CF93B4
:10068000DF931F92CDB7DEB7698361E0CE0101969B
:100690000E94C00281E090E00F90DF91CF91089519
:1006A000089580E090E00895CF93DF93EB010097E9
:1006B00031F461E089E00E94E70061E008C01816AB
:1006C000190654F4BC0189E00E94160160E087E03D
:1006D0000E94E70061E00CC066277727681B790B52
:1006E00089E00E94160161E087E00E94E70060E077
:1006F00088E00E94E700209731F461E086E00E94E4
:10070000E70061E008C01C161D0654F4BE0186E037
:100710000E94160160E084E00E94E70061E00CC0E6
:10072000662777276C1B7D0B86E00E94160161E02F
:1007300084E00E94E70060E085E0DF91CF910C94B7
:10074000E7000F931F93CF93DF9387E992E00E9416
:10075000F80287E992E00E94F802EC0187E992E052
:100760000E94F802CC0FDD1F2197C89F8001C99F0E
:10077000100DD89F100D11241093310100933001FA
:1007800087E992E00E94F802EC0187E992E00E947A
:10079000F802CC0FDD1F2197C89FB001C99F700DD3
:1007A000D89F700D112470932F0160932E01C80102
:1007B0000E9454039091E7018091E801981729F075
:1007C00087E992E00E94F802F5CFDF91CF911F9167
:1007D0000F9108950E94130A1F920F920FB60F9265
:1007E00011242F933F938F939F93AF93BF93809147
:1007F000F6019091F701A091F801B091F9013091C3
:10080000F50123E0230F2D3720F40196A11DB11D22
:1008100005C026E8230F0296A11DB11D2093F50106
:100820008093F6019093F701A093F801B093F9013A
:100830008091F1019091F201A091F301B091F40146
:100840000196A11DB11D8093F1019093F201A09337
:10085000F301B093F401BF91AF919F918F913F91BC
:100860002F910F900FBE0F901F9018951F920F920F
:100870000FB60F9211242F933F934F935F936F9373
:100880007F938F939F93AF93BF93EF93FF938AEFE1
:1008900091E00E941B02FF91EF91BF91AF919F9158
:1008A0008F917F916F915F914F913F912F910F9019
:1008B0000FBE0F901F9018951F920F920FB60F92B8
:1008C00011242F938F939F93EF93FF93E0910A024C
:1008D000F0910B028081E0911002F091110282FDF3
:1008E00012C09081809113028F5F8F732091140248
:1008F000821751F0E0911302F0E0E650FE4F958F21
:100900008093130201C08081FF91EF919F918F919D
:100910002F910F900FBE0F901F9018951F920F925E
:100920000FB60F9211242F933F938F939F93EF93C2
:10093000FF938091DD0187FF05C010928500109222
:10094000840005C08091DD0187FD8091DD018091EB
:10095000DD018F5F8093DD018091DD0187FF20C085
:100960008091DD018C30E4F4209184003091850089
:100970008091DD01082E000C990BFC01EE0FFF1F8A
:100980008E0F9F1FFC01E754FE4F81819281820FE1
:10099000931F90938900809388008091DD0117C098
:1009A0008091840090918500049680349C4918F4CD
:1009B00080E49CE905C080918400909185000496B4
:1009C00090938900809388008FEF8093DD01FF91E1
:1009D000EF919F918F913F912F910F900FBE0F90AC
:1009E0001F9018951F920F920FB60F9211242F93FC
:1009F0003F934F935F936F937F938F939F93AF93A7
:100A0000BF93EF93FF938091B900887F803609F4FC
:100A10009CC068F5883209F45BC090F4803109F419
:100A200054C038F4882309F4F6C0883009F44DC066
:100A3000F6C0883109F44CC0803209F45DC0EFC0C3
:100A4000803409F468C048F4803309F455C0883311
:100A500009F0E5C080939501D8C0803509F44FC0F6
:100A6000883509F45DC0883409F0D9C0D6C088390A
:100A700009F4C7C0A8F4883709F467C038F4883689
:100A800009F463C0803709F460C0C9C0883809F42C
:100A9000B8C0803909F45FC0803809F0C0C05BC0BD
:100AA000803B09F486C038F4803A09F466C0883A7D
:100AB00009F47FC0B4C0803C09F4A7C0883C09F4A5
:100AC000A4C0883B09F48AC0AAC08091B80110C0B4
:100AD0009091B7018091B601981770F5E091B70138
:100AE00081E08E0F8093B701F0E0EA56FE4F8081DF
:100AF0008093BB0085EC86C0809395018EC0E09109
:100B0000B70181E08E0F8093B7018091BB00F0E0C8
:100B1000EA56FE4F80839091B7018091B6016EC076
:100B2000E091B70181E08E0F8093B7018091BB0007
:100B3000F0E0EA56FE4F80838091E30181116DC0A1
:100B400081E08093E20184EA61C083E08093E40164
:100B500010929401CFCF80919401803208F051C05F
:100B6000E091940181E08E0F809394018091BB000D
:100B7000F0E0EC58FE4F8083BDCF85EC8093BC0045
:100B80001092E40180919401803230F4E09194015C
:100B9000F0E0EC58FE4F10826091940170E0E0911B
:100BA000DE01F091DF0184E791E009951092940154
:100BB00036C084E08093E4011092730110927201B8
:100BC000E091E001F091E1010995809172018111BC
:100BD00005C081E08093720110925201E09173018F
:100BE00081E08E0F80937301F0E0EE5AFE4F80811A
:100BF0008093BB009091730180917201981708F463
:100C000079CF85E88093BC000AC085EC8093BC0056
:100C10001092E40104C0109295010E94B602FF9167
:100C2000EF91BF91AF919F918F917F916F915F9164
:100C30004F913F912F910F900FBE0F901F901895DD
:100C4000EAEFF1E01382128288EE93E0A0E0B0E0D8
:100C500084839583A683B78324E031E031832083A6
:100C600025EC30E03587248724EC30E03787268771
:100C700020EC30E0318B208B21EC30E0338B228B69
:100C800022EC30E0358B248B26EC30E0378B268B42
:100C9000118E128E138E148EE7E9F2E01382128207
:100CA00084839583A683B78386E191E091838083D3
:100CB0000895789484B5826084BD84B5816084BDD4
:100CC00085B5826085BD85B5816085BD80916E00EA
:100CD000816080936E00109281008091810082601B
:100CE0008093810080918100816080938100809158
:100CF00080008160809380008091B1008460809347
:100D0000B1008091B00081608093B00080917A0042
:100D1000846080937A0080917A00826080937A0068
:100D200080917A00816080937A0080917A00806857
:100D300080937A001092C100C4E08C2F0E948C0036
:100D4000CF5FCE30D1F7E0910A02F0910B0282E042
:100D50008083E0910602F09107021082E091080280
:100D6000F091090280E1808310921202E0910E025C
:100D7000F0910F0286E08083E0910C02F0910D0269
:100D8000808180618083E0910C02F0910D0280816E
:100D900088608083E0910C02F0910D028081806870
:100DA0008083E0910C02F0910D0280818F7D808321
:100DB0001092E8011092E7011092E6011092E5010D
:100DC0001092E40181E08093E3011092E20161E07E
:100DD00082E10E94E70061E083E10E94E7008091E8
:100DE000B9008E7F8093B9008091B9008D7F809388
:100DF000B90088E48093B80085E48093BC0084E760
:100E000091E09093E1018093E00180E891E090937C
:100E1000DF018093DE0188E08093BA008AEF80933F
:100E2000B80081EA93E09093EA018093E9018FE1B1
:100E300093E09093EC018093EB0146E050E064E294
:100E400071E08AEF91E00E94AA0142E050E06BE27B
:100E500071E08AEF91E00E94AA0160E070E080E01A
:100E600090E00E945403CFE7D0E00BEB10E097EA4C
:100E7000E92E90E0F92E0E94AB00BC01990F880B7F
:100E8000990B0E94C30820E030E040E851E40E9442
:100E9000540920E030EC4FE754E40E944F0820E072
:100EA00030E0A9010E94E3072B013C018FB7F894C1
:100EB0008090F6019090F701A090F801B090F901B0
:100EC0008FBF20E030E040E451E4C301B2010E9452
:100ED0004F0918161CF120E030E048E351E4C3014B
:100EE000B2010E944F091816F4F020E030E040E310
:100EF00051E4C301B2010E944F091816CCF020E062
:100F000030E048E251E4C301B2010E944F091816D3
:100F1000A4F082E390E0A0E0B0E013C088EE93E09C
:100F2000A0E0B0E00EC084EF91E0A0E0B0E009C026
:100F30008AEF90E0A0E0B0E004C084E690E0A0E09A
:100F4000B0E04091ED015091EE016091EF017091A0
:100F5000F00124013501441A550A660A770A481639
:100F600059066A067B0658F18092ED019092EE01D7
:100F7000A092EF01B092F001FE018491F801B490CB
:100F8000F701D490DD20A1F081110E94BE00ED2D6B
:100F9000F0E0EE0FFF1FE859FF4FA591B4918C913F
:100FA0008B2121E090E009F420E0622F792F02C02C
:100FB00060E070E0F1E06F278DE00E94E7000E94A2
:100FC000AC0259CF5058BB27AA270E94FA070C94AD
:100FD00015090E94070938F00E940E0920F039F423
:100FE0009F3F19F426F40C9404090EF4E095E7FBF6
:100FF0000C94FE08E92F0E94260958F3BA176207DD
:1010000073078407950720F079F4A6F50C94480936
:101010000EF4E0950B2EBA2FA02D0B01B901900113
:101020000C01CA01A0011124FF27591B99F0593F57
:1010300050F4503E68F11A16F040A22F232F342F9F
:101040004427585FF3CF469537952795A795F040ED
:101050005395C9F77EF41F16BA0B620B730B840B02
:10106000BAF09150A1F0FF0FBB1F661F771F881FBA
:10107000C2F70EC0BA0F621F731F841F48F4879512
:1010800077956795B795F7959E3F08F0B0CF939504
:10109000880F08F09927EE0F9795879508950E947D
:1010A00063080C9415090E940E0958F00E94070964
:1010B00040F029F45F3F29F00C94FE0851110C9484
:1010C00049090C9404090E94260968F39923B1F395
:1010D000552391F3951B550BBB27AA27621773075E
:1010E000840738F09F5F5F4F220F331F441FAA1FF2
:1010F000A9F335D00E2E3AF0E0E832D091505040AE
:10110000E695001CCAF72BD0FE2F29D0660F771F5B
:10111000881FBB1F261737074807AB07B0E809F041
:10112000BB0B802DBF01FF2793585F4F3AF09E3FC6
:10113000510578F00C94FE080C9449095F3FE4F3E4
:10114000983ED4F3869577956795B795F7959F5F09
:10115000C9F7880F911D9695879597F90895E1E055
:10116000660F771F881FBB1F621773078407BA07B4
:1011700020F0621B730B840BBA0BEE1F88F7E0950F
:101180000895E89409C097FB3EF49095809570957A
:1011900061957F4F8F4F9F4F9923A9F0F92F96E9C3
:1011A000BB279395F695879577956795B795F11138
:1011B000F8CFFAF4BB0F11F460FF1BC06F5F7F4FD5
:1011C0008F4F9F4F16C0882311F096E911C07723E7
:1011D00021F09EE8872F762F05C0662371F096E8F0
:1011E000862F70E060E02AF09A95660F771F881FBF
:1011F000DAF7880F9695879597F9089597F99F677D
:1012000080E870E060E008959FEF80EC089500248E
:101210000A941616170618060906089500240A945B
:1012200012161306140605060895092E0394000CE1
:1012300011F4882352F0BB0F40F4BF2B11F460FF70
:1012400004C06F5F7F4F8F4F9F4F089557FD905899
:10125000440F551F59F05F3F71F04795880F97FB7A
:10126000991F61F09F3F79F0879508951216130634
:101270001406551FF2CF4695F1DF08C01616170663
:101280001806991FF1CF8695710561050894089598
:10129000E894BB2766277727CB0197F908950E942A
:1012A000C10908F48FEF08950E9467090C9415098D
:1012B0000E94070938F00E940E0920F0952311F0D2
:1012C0000C94FE080C94040911240C9449090E9402
:1012D000260970F3959FC1F3950F50E0551F629F4B
:1012E000F001729FBB27F00DB11D639FAA27F00D7F
:1012F000B11DAA1F649F6627B00DA11D661F829FA6
:101300002227B00DA11D621F739FB00DA11D621F8A
:10131000839FA00D611D221F749F3327A00D611DA7
:10132000231F849F600D211D822F762F6A2F112489
:101330009F5750409AF0F1F088234AF0EE0FFF1FBC
:10134000BB1F661F771F881F91505040A9F79E3F13
:10135000510580F00C94FE080C9449095F3FE4F3BA
:10136000983ED4F3869577956795B795F795E79569
:101370009F5FC1F7FE2B880F911D9695879597F972
:101380000895990F0008550FAA0BE0E8FEEF161616
:101390001706E807F907C0F012161306E407F50769
:1013A00098F0621B730B840B950B39F40A2661F0DD
:1013B000232B242B252B21F408950A2609F4A14080
:1013C000A6958FEF811D811D089597FB072E16F4BA
:1013D000009407D077FD09D00E94F90907FC05D0D9
:1013E0003EF4909581959F4F0895709561957F4F3C
:1013F0000895AA1BBB1B51E107C0AA1FBB1FA6175C
:10140000B70710F0A61BB70B881F991F5A95A9F7AD
:1014100080959095BC01CD010895EE0FFF1F0590BA
:10142000F491E02D099481E090E0F8940C94180A6E
:04143000F894FFCF5E
:10143400000000003D02AA01D4018A020502E30172
:10144400F701000000003F0314035103E8020C03FA
:0E145400F802E902526561647921000D0A0078
:00000001FF
